:020000041000EA
:1000000000B5324B212058609868022188439860DF
:10001000D860186158612E4B002199600221596106
:100020000121F02299502B49196001219960352056
:1000300000F044F80222904214D00621196600F024
:1000400034F8196E01211966002018661A6600F04E
:100050002CF8196E196E196E052000F02FF8012189
:100060000842F9D1002199601B49196000215960AB
:100070001A491B48016001219960EB211966A021F2
:10008000196600F012F800219960164914480160C1
:100090000121996001BC002800D000471248134993
:1000A000086003C880F30888084703B5996A0420EC
:1000B0000142FBD001200142F8D103BD02B5186610
:1000C0001866FFF7F2FF186E186E02BD00000240BE
:1000D000000000180000070000035F00212200005C
:1000E000F4000018222000A00001001008ED00E03C
:1000F00000000000000000000000000074B24E7A12
:1001000000200420F7010010C3010010C5010010F9
:10011000C1010010C1010010C1010010C101001097
:10012000C1010010C1010010C1010010C701001081
:10013000C1010010C1010010C9010010CB01001065
:10014000CD010010CD010010CD010010CD01001037
:10015000CD010010CD010010CD010010CD01001027
:10016000CD010010CD010010CD010010CD01001017
:10017000CD010010CD010010CD010010CD01001007
:10018000CD010010CD010010CD010010CD010010F7
:10019000CD010010CD010010CD010010CD010010E7
:1001A000CD010010CD010010CD010010CD010010D7
:1001B000CD010010CD010010CD010010CD010010C7
:1001C00000BE00BE00BE00BE00BE00BEEFF3058054
:1001D000103800BEF2EB88719C900010C4900010A3
:1001E0003402001090A31AE700201F49086006C8D7
:1001F00081F3088810471D48006800282FD10DA4FE
:100200000ECC002902D000F012F8F9E71849194A7B
:10021000002000E001C19142FCD1174988471749ED
:1002200088471749884700BEFDE701C901C29A42C5
:10023000FBD37047C4900010C0000020780200205B
:100240007C92001000000420000004207C9200102A
:10025000001004200010042000000000704709482E
:1002600006F0F8FD0047000008ED00E0000000D0B7
:1002700088020020200700200D570010893D001043
:10028000015800105756000006005250ABB360539F
:10029000D88F001006005250861C0302E88F001011
:1002A000060052505422A29DF08F001005005250BB
:1002B000DE65F4687C920010F8B5C04610B5064CB7
:1002C0002378002B07D1054B002B02D0044800E017
:1002D00000BF0123237010BD88050020000000002E
:1002E00058870010044B10B5002B03D00349044875
:1002F00000E000BF10BDC046000000008C050020DB
:1003000058870010F0B5D6464F464646C0B58146E0
:1003100084B0152003F07AFED024802324069B03AA
:10032000A3621F211B2003F01BFE002200211B20C3
:1003300003F02EFE00211B2003F054FE8023964D77
:100340005B012A6816205340E022D2011340934AF1
:1003500004AF136003F05AFE8023DB0363621A20AC
:10036000636103F053FE8023DB046362A3618C4B63
:1003700001AC8022260021009C46042052006346E6
:1003800018602B681342FCD06B681B041B0C08C15F
:10039000B942F4D1029A019B934200DCF8E0029347
:1003A00023001A60039D022202A900E001227D4B76
:1003B000D3189B00E058854200DBE3E0C850012AD7
:1003C000F4D1220015606268774B16209B1A98467C
:1003D00003F01CFED0231B069A4680235246DB0303
:1003E00093621F211A2003F0BBFD002200211A2076
:1003F00003F0CEFD00211A2003F0F4FDE022664D4B
:10040000D2012B681B201340644A136003F0FEFDE9
:10041000802352461B0553621520536103F0F6FDFD
:10042000802352469B0353629361802204215C48DF
:10043000520001602B681342FCD06B681B041B0C3C
:1004400008C6BE42F5D1029A019B934200DCA1E0AE
:10045000029323001A60039E022202A800E00122F8
:10046000504BD3189B00E1588E4200DB8DE0C15009
:10047000012AF4D12200166063684B4C1620E41A5E
:10048000D02603F0C3FD80233606DB0373621520FC
:10049000B36103F0BBFD80239B0373621F21736173
:1004A0001A2003F05DFD002200211A2003F070FDE8
:1004B00000211A2003F096FD1F211B2003F050FDA0
:1004C000002200211B2003F063FD00211B2003F00C
:1004D00089FDE021304AC90113680B402F490B60A8
:1004E00004212F4B1960FC3113680B42FCD0802390
:1004F000566812685B015340E022D2011340274A3C
:10050000802113600422264B36041A60224A360CDE
:10051000490013680B42FCD050680004000C07F03F
:100520007DFB071C300007F079FB011C381C07F02D
:100530002CFBFE21890507F022FB061C404607F034
:100540006DFB311C07F035FB184907F032FBE62143
:10055000890507F02EFB1649061C07F059FB0028F9
:100560000ED1301C07F07CFB00B24B4642465C804B
:100570001A80988004B0E0BCBA46B146A846F0BDE7
:100580000C48F2E79200A2181CE79200A21872E74A
:1005900002AB06E702AB5DE700C0044000D00440B8
:1005A00000E00440FFFFFF3FFF0F00000080894391
:1005B00000FEFF46FF7F00000122034B1A6300226A
:1005C000024B1A707047C04600002050980100206E
:1005D000F0B5C646F02200B5404B84B01A80404BBF
:1005E000503212201A80D02403F010FD80232406FC
:1005F000DB0263621420636103F008FD80235B0368
:100600006362102003F002FD8023364E5B026362BA
:1006100035493068984607F0D1FE344BC201186066
:10062000431D1B031343324A346813400193314B7B
:1006300075680393304B0700029343460093A02351
:100640002900200000221B0307F01CFFA0231B032E
:100650001A002900200007F067FF284B1320E31839
:100660005A1E934106339846190003F079FC41461F
:10067000112003F075FC0021112003F0A1FC6B4652
:100680003A002900200007F0A1FF6B005B19DB0096
:100690001B4AE318D8331A601A4A07201A6001224D
:1006A0001300AB4021680B432360336816491A637B
:1006B00080222D339201FF331343802252001A60AF
:1006C00003F036FD0121072003F018FDFA20400059
:1006D00004F0A4F904B080BCB846F0BD06070020C1
:1006E000040700209C010020548C0010A806002064
:1006F000FFFFFF9F13441020000006100000E0AF32
:1007000026E0000046E00000B9050010012270B5A7
:10071000104D060A6B6829681C1D10339A40A4000E
:100720000C194B681A42FCD1267012CD230001220D
:1007300010339A40084D2B78002BFCD10434013340
:10074000A4002B70C0B20C194B681342FCD120706E
:1007500070BDC0469C01002098010020F0B5D02358
:1007600015008022C6461B06520200B59A618022FF
:10077000D2029A610122814E0F00736831681C1DFC
:1007800010339A40A4000C194B681A42FCD12A235A
:100790002370C046C046C046C046C046C046C0469C
:1007A000C046C046C046C046C046C046C046C04619
:1007B000C046C046C046C046C046C046C046C04609
:1007C000C046C046C046C046C046C046C046C046F9
:1007D000C046C046C046C046C046C046C046C046E9
:1007E000C046C046C046C046C046C046C046C046D9
:1007F000C046C046C046C046C046C046C046C046C9
:10080000C046C046C046C046C046C046C046C046B8
:10081000C0465B4C2378002BFCD10133237080222F
:10082000D02380211B06D20249025A6159619A6184
:1008300083B218009846FFF769FFC046C046C0461D
:10084000C046C046C046C046C046C046C046C04678
:10085000C046C046C046C046C046C046C046C04668
:10086000C046C046C046C046C046C046C046C04658
:10087000C046C046C046C046C046C046C046C04648
:10088000C046C046C046C046C046C046C046C04638
:10089000C046C046C046C046C046C046C046C04628
:1008A000C046C046C046C046C046C046C046C04618
:1008B000C046C046C046C046C046C046C046C04608
:1008C000C046C046C046C046C046C046C046C046F8
:1008D000C046C046C046C046C046C046C046C046E8
:1008E000C046C046C046C046C046C046C046C046D8
:1008F000C046C046C046C046C046C046C046C046C8
:10090000C046C046C046C046C046C046C046C046B7
:10091000C046C046C046C046C046C046C046C046A7
:10092000C046C046C046C046C046C046C046C04697
:10093000C046C046C046C046C046C046C046C04687
:10094000C046C046C046C046C046C046C046C04677
:10095000C046C046C046C046C046C046C046C04667
:10096000C046C046C046C046C046C046C046C04657
:10097000C046C046C046C046C04603E09C010020B9
:10098000980100202378002BFCD1013323704046CE
:10099000D02380221B06D20201305A6180B29A61B4
:1009A000FFF7B4FEC046C046C046C046C046C0467B
:1009B000C046C046C046C046C046C046C046C04607
:1009C000C046C046C046C046C046C046C046C046F7
:1009D000C046C046C046C046C046C046C046C046E7
:1009E000C046C046C046C046C046C046C046C046D7
:1009F000C046C046C046C046C046C046C046C046C7
:100A0000C046C046C046C046C046C046C046C046B6
:100A1000C046C046C046C046C046C046C046C046A6
:100A2000C046C046C046C046C046C046C046C04696
:100A3000C046C046C046C046C046C046C046C04686
:100A4000C046C046C046C046C046C046C046C04676
:100A5000C046C046C046C046C046C046C046C04666
:100A6000C046C046C046C046C046C046C046C04656
:100A7000C046C046C046C046C046C046C046C04646
:100A8000C046C046C046C046C046C046C046C04636
:100A9000C046C046C046C046C046C046C046C04626
:100AA000C046C046C046C046C046C046C046C04616
:100AB000C046C046C046C046C046C046C046C04606
:100AC000C046C046C046C046C046C046C046C046F6
:100AD000C046C046C046C046C046C046C046C046E6
:100AE000C046C0462378002BFCD1D0238022802131
:100AF00001201B06D202490220705A619961716877
:100B00009A610B1D9B009C461031884032689444CA
:100B100053681842FCD12B2362461370C046C0466E
:100B2000C046C046C046C046C046C046C046C04695
:100B3000C046C046C046C046C046C046C046C04685
:100B4000C046C046C046C046C046C046C046C04675
:100B5000C046C046C046C046C046C046C046C04665
:100B6000C046C046C046C046C046C046C046C04655
:100B7000C046C046C046C046C046C046C046C04645
:100B8000C046C046C046C046C046C046C046C04635
:100B9000C046C046C046C046C046C046C046C04625
:100BA000C046C046C046C046C046C046C046C04615
:100BB000C046C046C046C046C046C046C046C04605
:100BC000C046C046C046C046C046C046C046C046F5
:100BD000C046C046C046C046C046C0462378002B2B
:100BE000FCD1013323708022D02380211B06D20246
:100BF0004902BFB25A61380059619A61FFF786FD18
:100C0000C046C046C046C046C046C046C046C046B4
:100C1000C046C046C046C046C046C046C046C046A4
:100C2000C046C046C046C046C046C046C046C04694
:100C3000C046C046C046C046C046C046C046C04684
:100C4000C046C046C046C046C046C046C046C04674
:100C5000C046C046C046C046C046C046C046C04664
:100C6000C046C046C046C046C046C046C046C04654
:100C7000C046C046C046C046C046C046C046C04644
:100C8000C046C046C046C046C046C046C046C04634
:100C9000C046C046C046C046C046C046C046C04624
:100CA000C046C046C046C046C046C046C046C04614
:100CB000C046C046C046C046C046C046C046C04604
:100CC000C046C046C046C046C046C046C046C046F4
:100CD000C046C046C046C046C046C046C046C046E4
:100CE000C046C046C046C046C046C046C046C046D4
:100CF000C046C046C046C046C046C046C046C046C4
:100D0000C046C046C046C046C046C046C046C046B3
:100D1000C046C046C046C046C046C046C046C046A3
:100D2000C046C046C046C046C046C046C046C04693
:100D3000C046C046C046C046C046C046C046C04683
:100D40002378002BFCD1013323708022D023D202E0
:100D50001B0601375A61B8B29A61FFF7D7FCC0464B
:100D6000C046C046C046C046C046C046C046C04653
:100D7000C046C046C046C046C046C046C046C04643
:100D8000C046C046C046C046C046C046C046C04633
:100D9000C046C046C046C046C046C046C046C04623
:100DA000C046C046C046C046C046C046C046C04613
:100DB000C046C046C046C046C046C046C046C04603
:100DC000C046C046C046C046C046C046C046C046F3
:100DD000C046C046C046C046C046C046C046C046E3
:100DE000C046C046C046C046C046C046C046C046D3
:100DF000C046C046C046C046C046C046C046C046C3
:100E0000C046C046C046C046C046C046C046C046B2
:100E1000C046C046C046C046C046C046C046C046A2
:100E2000C046C046C046C046C046C046C046C04692
:100E3000C046C046C046C046C046C046C046C04682
:100E4000C046C046C046C046C046C046C046C04672
:100E5000C046C046C046C046C046C046C046C04662
:100E6000C046C046C046C046C046C046C046C04652
:100E7000C046C046C046C046C046C046C046C04642
:100E8000C046C046C046C046C046C046C046C04632
:100E9000C046C046C046C046C046C046C04623788D
:100EA000002BFCD1D0238022802001211B06D202FE
:100EB000400221705A6198619A6144CE301D10360B
:100EC000B1408000101853680B42FCD12C230370F2
:100ED000C046C046C046C046C046C046C046C046E2
:100EE000C046C046C046C046C046C046C046C046D2
:100EF000C046C046C046C046C046C046C046C046C2
:100F0000C046C046C046C046C046C046C046C046B1
:100F1000C046C046C046C046C046C046C046C046A1
:100F2000C046C046C046C046C046C046C046C04691
:100F3000C046C046C046C046C046C046C046C04681
:100F4000C046C046C046C046C046C046C046C04671
:100F5000C046C046C046C046C046C046C046C04661
:100F6000C046C046C046C046C046C046C046C04651
:100F7000C046C046C046C046C046C046C046C04641
:100F8000C046C046C046C046C046C046C046C04631
:100F90002378002BFCD1013323708022D0238021C1
:100FA0001B06D20249025A61280059619A61FFF773
:100FB000ADFBC046C046C046C046C046C046C0465F
:100FC000C046C046C046C046C046C046C046C046F1
:100FD000C046C046C046C046C046C046C046C046E1
:100FE000C046C046C046C046C046C046C046C046D1
:100FF000C046C046C046C046C046C046C046C046C1
:10100000C046C046C046C046C046C046C046C046B0
:10101000C046C046C046C046C046C046C046C046A0
:10102000C046C046C046C046C046C046C046C04690
:10103000C046C046C046C046C046C046C046C04680
:10104000C046C046C046C046C046C046C046C04670
:10105000C046C046C046C046C046C046C046C04660
:10106000C046C046C046C046C046C046C046C04650
:10107000C046C046C046C046C046C046C046C04640
:10108000C046C046C046C046C046C046C046C04630
:10109000C046C046C046C046C046C046C046C04620
:1010A000C046C046C046C046C046C046C046C04610
:1010B000C046C046C046C046C046C046C046C04600
:1010C000C046C046C046C046C046C046C046C046F0
:1010D000C046C046C046C046C046C046C046C046E0
:1010E000C046C046C046C046C046C046C046C046D0
:1010F000C0462378002BFCD1013323708022D023FB
:10110000D2021B065A6180BCB846F0BDF0B5FA2089
:10111000C646D02480258027802624066D0300B58E
:1011200040007F02F60203F079FCA5610520A7616B
:101130006661656103F072FC1420A56103F06EFC2A
:101140009620656103F06AFC0122DE4DA7616B68A1
:101150002968181D10339A408000A66108184B6852
:101160001A42FCD1EF230370686801220300103398
:101170009A402968D44C2378002BFCD1013323708A
:101180008026D023802704301B06F6027F028000D1
:101190005E6108185F619E614B681A42FCD10323AF
:1011A000037068680122030010339A40296823788D
:1011B000002BFCD1013323708026D02380270430FC
:1011C0001B06F6027F0280005E6108185F619E6167
:1011D0004B681A42FCD18023037068680122030027
:1011E00010339A4029682378002BFCD101332370F7
:1011F0008026D023802704301B06F6027F02800061
:101200005E6108185F619E614B681A42FCD102233F
:10121000037068680122030010339A40296823781C
:10122000002BFCD1013323708026D023802704308B
:101230001B06F6027F0280005E6108189F619E61B6
:101240004B681A42FCD1CF23037068680122030067
:1012500010339A4029682378002BFCD10133237086
:101260008026D02380271B06F6027F0204305E61B1
:101270005F619E6186008E1910004B6818401A420B
:10128000FAD1307068680122030010339A4029684F
:101290002378002BFCD1013323708026D0238027B4
:1012A00004301B06F6027F0280005E6108185F6151
:1012B0009E614B681A42FCD1C12303706868012209
:1012C000030010339A4029682378002BFCD10133A6
:1012D00023708026D023802704301B06F6027F026D
:1012E00080005E6108185F619E614B681A42FCD104
:1012F0003023037068680122030010339A40296884
:101300002378002BFCD1013323708026D023802743
:1013100004301B06F6027F0280005E6108189F61A0
:101320009E614B681A42FCD1ED230370686801226C
:10133000030010339A4029682378002BFCD1013335
:1013400023708026D023802704301B06F6027F02FC
:1013500080005E6108185F619E614B681A42FCD193
:101360006423037068680122030010339A402968DF
:101370002378002BFCD1013323708026D0238027D3
:1013800004301B06F6027F0280005E6108185F6170
:101390009E614B681A42FCD10323037068680122E6
:1013A000030010339A4029682378002BFCD10133C5
:1013B00023708026D023802704301B06F6027F028C
:1013C00080005E6108185F619E614B681A42FCD123
:1013D0001223037068680122030010339A402968C1
:1013E0002378002BFCD1013323708026D023802763
:1013F00004301B06F6027F0280005E6108185F6100
:101400009E614B681A42FCD18123037068680122F7
:10141000030010339A4029682378002BFCD1013354
:1014200023708026D023802704301B06F6027F021B
:1014300080005E6108189F619E614B681A42FCD172
:10144000E823037068680122030010339A4029687A
:101450002378002BFCD1013323708026D0238027F2
:1014600004301B06F6027F0280005E6108185F618F
:101470009E614B681A42FCD1852303706868012283
:10148000030010339A4029682378002BFCD10133E4
:1014900023708026D02380271B06F6027F020430AB
:1014A0005E615F619E6186008E1910004B68184076
:1014B0001A42FAD1307068680122030010339A4052
:1014C000296803E09C010020980100202378002B6C
:1014D000FCD1013323708026D023802704301B06E3
:1014E000F6027F0280005E6108185F619E614B68B2
:1014F0001A42FCD17823037068680122030010337C
:101500009A4029682378002BFCD101332370802670
:10151000D023802704301B06F6027F0280005E6124
:1015200008189F619E614B681A42FCD1CB2303705F
:1015300068680122030010339A4029682378002B41
:10154000FCD1013323708026D023802704301B0672
:10155000F6027F0280005E6108185F619E614B6841
:101560001A42FCD13923037068680122030010334A
:101570009A4029682378002BFCD101332370802600
:10158000D023802704301B06F6027F0280005E61B4
:1015900008185F619E614B681A42FCD12C230370CE
:1015A00068680122030010339A4029682378002BD1
:1015B000FCD1013323708026D02380271B06F6023E
:1015C0007F0204305E615F619E6186008E191000AB
:1015D0004B6818401A42FAD1307068680122030043
:1015E00010339A4029682378002BFCD101332370F3
:1015F0008026D023802704301B06F6027F0280005D
:101600005E6108185F619E614B681A42FCD1342309
:10161000037068680122030010339A402968237818
:10162000002BFCD1013323708026D0238027043087
:101630001B06F6027F0280005E6108185F619E61F2
:101640004B681A42FCD10223037068680122030030
:1016500010339A4029682378002BFCD10133237082
:101660008026D023802704301B06F6027F028000EC
:101670005E6108189F619E614B681A42FCD1F72396
:10168000037068680122030010339A4029682378A8
:10169000002BFCD1013323708026D0238027043017
:1016A0001B06F6027F0280005E6108185F619E6182
:1016B0004B681A42FCD120230370686801220300A2
:1016C00010339A4029682378002BFCD10133237012
:1016D0008026D023802704301B06F6027F0280007C
:1016E0005E6108189F619E614B681A42FCD1EA2333
:1016F000037068680122030010339A402968237838
:10170000002BFCD1013323708026D02380271B06B9
:10171000F6027F0204305E615F619E6186008E1971
:1017200010004B6818401A42FAD1307068680122E4
:10173000030010339A4029682378002BFCD1013331
:1017400023708026D02380271B06F6027F020430F8
:101750005E615F619E6186008E1910004B681840C3
:101760001A42FAD1307068680122030010339A409F
:1017700029682378002BFCD1013323708026D023E5
:10178000802704301B06F6027F0280005E61081885
:101790009F619E614B681A42FCD1C0230370686848
:1017A0000122030010339A4029682378002BFCD1D2
:1017B000013323708026D023802704301B06F602D5
:1017C0007F0280005E6108185F619E614B681A426B
:1017D000FCD12323037068680122030010339A4070
:1017E00029682378002BFCD1013323708026D02375
:1017F000802704301B06F6027F0280005E61081815
:101800009F619E614B681A42FCD1C12303706868D6
:101810000122030010339A4029682378002BFCD161
:10182000013323708026D023802704301B06F60264
:101830007F0280005E6108185F619E614B681A42FA
:10184000FCD11023037068680122030010339A4012
:1018500029682378002BFCD1013323708026D02304
:10186000802704301B06F6027F0280005E610818A4
:101870009F619E614B681A42FCD1C5230370686862
:101880000122030010339A4029682378002BFCD1F1
:10189000013323708026D023802704301B06F602F4
:1018A0007F0280005E6108185F619E614B681A428A
:1018B000FCD13E23037068680122030010339A4074
:1018C00029682378002BFCD1013323708026D02394
:1018D000802704301B06F6027F0280005E61081834
:1018E0005F619E614B681A42FCD1282303706868CF
:1018F0000122030010339A4029682378002BFCD181
:10190000013323708026D023802704301B06F60283
:101910007F0280005E6108189F619E614B681A42D9
:10192000FCD1C723037068680122030010339A407A
:1019300029682378002BFCD1013323708026D02323
:10194000802704301B06F6027F0280005E610818C3
:101950005F619E614B681A42FCD186230370686800
:101960000122030010339A4029682378002BFCD110
:10197000013323708026D023802704301B06F60213
:101980007F0280005E6108189F619E614B681A4269
:10199000FCD13623037068680122030010339A409B
:1019A00029682378002BFCD1013323708026D023B3
:1019B000802704301B06F6027F0280005E61081853
:1019C0005F619E614B681A42FCD1482303706868CE
:1019D0000122030010339A4029682378002BFCD1A0
:1019E000013323708026D023802704301B06F602A3
:1019F0007F0280005E6108189F619E614B681A42F9
:101A0000FCD13A23037068680122030010339A4026
:101A100029682378002BFCD1013323708026D02342
:101A2000802704301B06F6027F0280005E610818E2
:101A30005F619E614B681A42FCD155230370686850
:101A40000122030010339A4029682378002BFCD12F
:101A5000013323708026D023802704301B06F60232
:101A60007F0280005E6108189F619E614B681A4288
:101A7000FCD1B123037068680122030010339A403F
:101A800029682378002BFCD1013323708026D023D2
:101A900080271B06F6027F0204305E615F619E6153
:101AA00086008E1910004B6818401A42FAD1307027
:101AB00068680122030010339A4029682378002BBC
:101AC000FCD1013323708026D023802704301B06ED
:101AD000F6027F0280005E6108185F619E614B68BC
:101AE0001A42FCD1182303706868012203001033E6
:101AF0009A4029682378002BFCD10133237080267B
:101B0000D023802704301B06F6027F0280005E612E
:101B100008189F619E614B681A42FCD1B62303707E
:101B200068680122030010339A4029682378002B4B
:101B3000FCD1013323708026D023802704301B067C
:101B4000F6027F0280005E6108185F619E614B684B
:101B50001A42FCD108230370686801220300103385
:101B60009A4029682378002BFCD10133237080260A
:101B7000D023802704301B06F6027F0280005E61BE
:101B800008185F619E614B681A42FCD18223037082
:101B900068680122030010339A4029682378002BDB
:101BA000FCD1013323708026D023802704301B060C
:101BB000F6027F0280005E6108185F619E614B68DB
:101BC0001A42FCD1272303706868012203001033F6
:101BD0009A4029682378002BFCD10133237080269A
:101BE000D023802704301B06F6027F0280005E614E
:101BF00008189F619E614B681A42FCD1F223037062
:101C000068680122030010339A4029682378002B6A
:101C1000FCD1013323708026D02380271B06F602D7
:101C20007F0204305E615F619E6186008E19100044
:101C30004B6818401A42FAD13070686801220300DC
:101C400010339A4029682378002BFCD1013323708C
:101C50008026D023802704301B06F6027F028000F6
:101C60005E6108189F619E614B681A42FCD1262371
:101C7000037068680122030010339A4029682378B2
:101C8000002BFCD1013323708026D0238027043021
:101C90001B06F6027F0280005E6108185F619E618C
:101CA0004B681A42FCD1012202706868296803005F
:101CB00010339A402378002BFCD101332370802607
:101CC000D023802704301B06F6027F0280005E616D
:101CD00008189F619E614B681A42FCD1E023037093
:101CE00068680122030010339A4029682378002B8A
:101CF000FCD1013323708026D023802704301B06BB
:101D0000F6027F0280005E6108185F619E614B6889
:101D10001A42FCD10F2303706868012203001033BC
:101D20009A4029682378002BFCD101332370802648
:101D3000D023802704301B06F6027F0280005E61FC
:101D400008185F619E614B681A42FCD13123037011
:101D500068680122030010339A4029682378002B19
:101D6000FCD1013323708026D023802704301B064A
:101D7000F6027F0280005E6108185F619E614B6819
:101D80001A42FCD12B230370686801220300103330
:101D90009A4029682378002BFCD1013323708026D8
:101DA000D023802704301B06F6027F0280005E618C
:101DB00008185F619E614B681A42FCD10C230370C6
:101DC00068680122030010339A4029682378002BA9
:101DD000FCD1013323708026D023802704301B06DA
:101DE000F6027F0280005E6108185F619E614B68A9
:101DF0001A42FCD10E2303706868012203001033DD
:101E00009A4029682378002BFCD101332370802667
:101E1000D023802704301B06F6027F0280005E611B
:101E200008185F619E614B681A42FCD10823037059
:101E300068680122030010339A4029682378002B38
:101E4000FCD1013323708026D023802704301B0669
:101E5000F6027F0280005E6108185F619E614B6838
:101E60001A42FCD14E23037068680122030010332C
:101E70009A4029682378002BFCD1013323708026F7
:101E8000D023802704301B06F6027F0280005E61AB
:101E900008185F619E614B681A42FCD1F123037000
:101EA00068680122030010339A4029682378002BC8
:101EB000FCD1013323708026D023802704301B06F9
:101EC000F6027F0280005E6108185F619E614B68C8
:101ED0001A42FCD1372303706868012203001033D3
:101EE0009A4029682378002BFCD101332370802687
:101EF000D023802704301B06F6027F0280005E613B
:101F000008185F619E614B681A42FCD10723037079
:101F100068680122030010339A4029682378002B57
:101F2000FCD1013323708026D023802704301B0688
:101F3000F6027F0280005E6108185F619E614B6857
:101F40001A42FCD110230370686801220300103389
:101F50009A4029682378002BFCD101332370802616
:101F6000D023802704301B06F6027F0280005E61CA
:101F700008185F619E614B681A42FCD1032303700D
:101F800068680122030010339A4029682378002BE7
:101F9000FCD1013323708026D023802704301B0618
:101FA000F6027F0280005E6108185F619E614B68E7
:101FB0001A42FCD10E23037068680122030010331B
:101FC0009A4029682378002BFCD1013323708026A6
:101FD000D023802704301B06F6027F0280005E615A
:101FE00008185F619E614B681A42FCD10923037097
:101FF00068680122030010339A4029682378002B77
:10200000FCD1013323708026D02380271B06F602E3
:102010007F0204305E615F619E6186008E19100050
:102020004B6818401A42FAD13070686801220300E8
:1020300010339A4029682378002BFCD10133237098
:102040008026D023802704301B06F6027F02800002
:102050005E6108189F619E614B681A42FCD1E123C2
:10206000037068680122030010339A4029682378BE
:10207000002BFCD1013323708026D02380271B0640
:10208000F6027F0204305E615F619E6186008E19F8
:1020900010004B6818401A42FAD13070686801226B
:1020A000030010339A4029682378002BFCD10133B8
:1020B00023708026D023802704301B06F6027F027F
:1020C00080005E6108185F619E614B681A42FCD116
:1020D0000E23037068680122030010339A402968B8
:1020E0002378002BFCD1013323708026D023802756
:1020F00004301B06F6027F0280005E6108185F61F3
:102100009E614B681A42FCD1142303706868012257
:10211000030010339A4029682378002BFCD1013347
:1021200023708026D023802704301B06F6027F020E
:1021300080005E6108185F619E614B681A42FCD1A5
:102140000323037068680122030010339A40296852
:102150002378002BFCD1013323708026D0238027E5
:1021600004301B06F6027F0280005E6108185F6182
:102170009E614B681A42FCD11123037068680122EA
:10218000030010339A4029682378002BFCD10133D7
:1021900023708026D023802704301B06F6027F029E
:1021A00080005E6108185F619E614B681A42FCD135
:1021B0000723037068680122030010339A402968DE
:1021C0002378002BFCD1013323708026D023802775
:1021D00004301B06F6027F0280005E6108185F6112
:1021E0009E614B681A42FCD131230370686801225A
:1021F000030010339A4029682378002BFCD1013367
:1022000023708026D023802704301B06F6027F022D
:1022100080005E6108185F619E614B681A42FCD1C4
:10222000C123037068680122030010339A402968B3
:102230002378002BFCD1013323708026D023802704
:1022400004301B06F6027F0280005E6108185F61A1
:102250009E614B681A42FCD14823037068680122D2
:10226000030010339A4029682378002BFCD10133F6
:1022700023708026D023802704301B06F6027F02BD
:1022800080005E6108185F619E614B681A42FCD154
:102290000823037068680122030010339A402968FC
:1022A0002378002BFCD1013323708026D023802794
:1022B00004301B06F6027F0280005E6108185F6131
:1022C0009E614B681A42FCD10F230370686801229B
:1022D000030010339A4029682378002BFCD1013386
:1022E00023708026D023802704301B06F6027F024D
:1022F00080005E6108185F619E614B681A42FCD1E4
:102300000C23037068680122030010339A40296887
:102310002378002BFCD1013323708026D023802723
:1023200004301B06F6027F0280005E6108185F61C0
:102330009E614B681A42FCD1312303706868012208
:10234000030010339A4029682378002BFCD1013315
:1023500023708026D023802704301B06F6027F02DC
:1023600080005E6108185F619E614B681A42FCD173
:102370003623037068680122030010339A402968ED
:102380002378002BFCD1013323708026D0238027B3
:1023900004301B06F6027F0280005E6108185F6150
:1023A0009E614B681A42FCD10F23037068680122BA
:1023B000030010339A4029682378002BFCD10133A5
:1023C00023708026D023802704301B06F6027F026C
:1023D00080005E6108189F619E614B681A42FCD1C3
:1023E000112303702378002BFCD1D02780230126F2
:1023F000DB023F06267078207B61984602F00EFBD8
:1024000006CD80235B02BB61101D4346103296400F
:102410008000BB6108184B681E42FCD12923037061
:102420002378002BFCD1013323708022D023FA20A3
:102430001B06D2025A61400002F0F0FA80BCB84696
:10244000F0BDC046F0B515001F008022D023C6465F
:102450001B06520200B59A6180224B4ED2029A614D
:1024600073688846191D10331C000123A34032688D
:102470008900511854682342FCD12A23434C0B7025
:102480002378002BFCD1013323708022D0238021BC
:102490001B06D20249025A6159619A61FEF736F968
:1024A0002378002BFCD1013323708022D02380219C
:1024B0001B06D20249025A61280059619A61FEF74F
:1024C00025F92378002BFCD1D023802280210125FF
:1024D0001B06D202490225705A61996171689A619E
:1024E000081D10318D403368800018185A68154255
:1024F000FCD12B2303702378002BFCD101332370F4
:102500008022D02380211B06D20249025A61404614
:1025100059619A61FEF7FAF82378002BFCD1013358
:1025200023708022D02380211B06D20249025A61E7
:10253000380059619A61FEF7E9F82378002BFCD145
:10254000D0238021802001221B06C9024002227074
:1025500059619861996122CE281D1035AA408000EA
:1025600008184B681342FCD12C2303702378002BEE
:10257000FCD1013323708022D023D2021B065A6182
:1025800080BCB846F0BDC0469C01002098010020E8
:10259000F8B5CE46474680B5984608AB1E882B4B0B
:1025A00091461B88984242DA294A1488A1423EDAB1
:1025B0004A46121880B2934242DB4B469AB24346D7
:1025C0005B1889B29C4236DB43469BB2CB1882181B
:1025D000013B013A9BB292B2FFF734FFD023802235
:1025E0001B0652025A618022D2029A614346002B96
:1025F00018DD4B46002B15DD0127164C4D463000EB
:10260000FEF784F821780029FCD1013DABB2277098
:102610002DB2002BF3D14346013B9AB21BB2984630
:10262000002AEBD1D02380221B06D2025A61C0BC03
:10263000B946B046F8BD641AA3B224B2A046C5E7B5
:102640001B1A9AB21BB29946B9E7C046060700208A
:10265000040700209801002000B5074B83B000223A
:102660009B5E064A0021525E009000210020FFF789
:102670008FFF03B000BDC0460407002006070020FE
:10268000D02380221B065202F0B59A618022D2022A
:102690009A61012206004048436801681C1D1033FE
:1026A0009A40A4000C194B681A42FCD136232370BF
:1026B00022C82B00012210339A40384B1C78002C82
:1026C000FCD10120D024802718702406FF0202309C
:1026D0006761304002284ED003283CD001281CD02E
:1026E000802004354002AD0060614D19A761486843
:1026F0001042FCD148222A701A78002AFCD10132FB
:102700001A70D02380221B06D2025A61F022244B79
:102710001A80244B50321A80F0BD802004354002CC
:10272000AD0060614D19A76148681042FCD12822B4
:102730002A701A78002AFCD101321A70D023802224
:102740001B06D2025A61A022154B52001A80154B6B
:10275000503A1A80E0E7802004354002AD00606105
:102760004D19A76148681042FCD1E8222A701A78F6
:10277000002AFCD1E0E7802004354002AD00606112
:102780004D19A76148681042FCD188222A701A7836
:10279000002AFCD1B3E7C0469C010020980100202C
:1027A0000607002004070020F0B557464E46DE46D7
:1027B0004546E0B506008BB0994614AB00255C5F3A
:1027C000089015A805940488B0B2A3461C8803009D
:1027D000A4460290634420009FB21BB29A46C54BA8
:1027E00003941B8894B2420090B201971A00069499
:1027F00007909A4500DB64E2201A04B285B2BE4815
:1028000004940088814200DB4FE1220052442E00F4
:10281000934202DADB1B9EB21CB201988BB2421EBD
:10282000B218190092B29846FFF70CFED02380220E
:102830001B0652025A618022D2029A61002C12D0E9
:102840005B460127AB461D00AC4C2800FDF75EFF40
:102850002378002BFCD1013EB6B22770002EF4D1B4
:102860002B005D469B46D02380221B06D2025A6174
:102870004B469BB2994643449BB25C1E09939D4BC9
:10288000A1B21A8824B21300524534DD9A48008858
:10289000A04230DD04985044834204DA019BD21AEE
:1028A00013B295B2049301980B00421EAA1892B27B
:1028B000FFF7C8FDD02380221B0652025A618022F6
:1028C000D2029A61049B002B0ED001265F468B4CEE
:1028D0003800FDF71BFF2378002BFCD1013DADB282
:1028E0002670002DF4D1BB46D02380221B06D202D5
:1028F0005A61804B1B884A460798039F121A95B26B
:1029000012B247449146089AB9B204913FB2934239
:1029100039DD794B1B889F4200DBDCE14A46D21946
:102920002E004C46934202DA5B1A9EB21CB2049906
:10293000029A4B1EF31810009BB2FFF783FDD023C1
:1029400080221B0652025A618022D2029A61002C18
:1029500012D00123AA4698465D46684C2800FDF730
:10296000D5FE2378002BFCD14346013EB6B223703E
:10297000002EF3D1AB465546D02380221B06D2024F
:102980005A615C4B1B880699029A8C46624492B24B
:10299000511E88B209B20692994231DA564B1B8811
:1029A0009F422DDA4F44BB4204DA049A9B1A9DB22F
:1029B0001BB29946049902004B1EEB189BB2FFF71D
:1029C00041FDD02380221B0652025A618022D2028E
:1029D0009A614B46002B0ED001265F46474C3800CB
:1029E000FDF794FE2378002BFCD1013DADB226709B
:1029F000002DF4D1BB46D02380221B06D2025A619F
:102A00000124039A059FD3039B1A5B00A41A1BB2EF
:102A100024B20293002F55DD9A460026A1463EE0DF
:102A2000013FBBB29846534602331AB292461C1974
:102A30003FB2A4B242460136B5B26B000133E4188E
:102A4000019B36B29B1A24B218B21B040FD4294B37
:102A50001B8898420BDA049B5B1B19B21B0406D43B
:102A6000254B1B88994202DA5A46FDF777FE019BF7
:102A70005D1B28B22B0410D41E4B1B8898420CDA25
:102A80004246049B9B1A19B21B0406D41A4B1B889E
:102A9000994202DA5A46FDF761FEB74219DD002C71
:102AA000BEDABBB29846A4B2C4E789B288464946AA
:102AB00089B289464146494489B24C1E0991A1B266
:102AC00024B2E5E60BB0F0BCBB46B246A946A04630
:102AD000F0BD039B4C46DB439AB29446069B00260E
:102AE00063449BB29946029BA246059F07920393BB
:102AF00044E0C0460607002004070020980100209B
:102B0000013FBBB29846039B3FB202331AB21C1975
:102B10000392A4B20136B5B26B000133E4184B4600
:102B20005B1936B224B218B21B0410D46D4B1B884B
:102B300098420CDA4246049B9B1A19B21B0406D435
:102B4000694B1B88994202DA5A46FDF707FE434655
:102B50004B4418B21B040FD4624B1B8898420BDA0B
:102B6000049B5D1B29B22B0406D45F4B1B88994242
:102B700002DA5A46FDF7F2FDB74205DD002CBFDA56
:102B8000BBB29846A4B2C5E7099A079B9446634432
:102B90009BB20493029B54460026059F03933DE09D
:102BA000013FBBB29846039B3FB202331AB21C19D5
:102BB0000392A4B20136B5B26B000133E4184B4660
:102BC0005B1936B224B218B21B040FD4454B1B88D4
:102BD00098420BDA049B434419B21B0406D4424BBF
:102BE0001B88994202DA5A46FDF7B8FD43464B442A
:102BF00018B21B0410D43B4B1B8898420CDA049B80
:102C00009C46654429B22B0406D4374B1B88994255
:102C100002DA5A46FDF7A2FDB74205DD002CBFDA05
:102C2000BBB29846A4B2C5E72F4B54469846019BC9
:102C300000259A46059E3EE0013EB3B29946029BAE
:102C400036B202331AB21C190292A4B20135AFB2E5
:102C50007B000133E4184A4653469B1A2DB224B236
:102C600018B21B040FD41F4B1B8898420BDA049B2D
:102C7000DB1919B21B0406D443461B88994202DAB9
:102C80005A46FDF76BFD5346DF1B38B23B040FD4A9
:102C9000144B1B8898420BDA049B4B4419B21B045B
:102CA00006D443461B88994202DA5A46FDF756FD80
:102CB000AE4200DC06E7002CBEDAB3B29946A4B2FD
:102CC000C4E78AB290464A4692B2914642464A4486
:102CD00092B209920FE6069B029A9C46624493B216
:102CE00006938DE60607002004070020F0B5454650
:102CF000DE4657464E46E0B591B01C001AAB1F8821
:102D000088460025595F85B2E81983B2069393B2CD
:102D10009A467B009BB2994653464A4602911BA9AC
:102D20000E889A1A4146230012B200B20096FFF7AD
:102D30002FFC53465A1EAD18ED1BABB2079343460A
:102D40000122F9184B46D21B12B29346FA03D71B45
:102D500088B2013C7F000299E31A3CB20A909BB210
:102D60000894002900DCA5E15A1C03339BB20493AC
:102D7000039300239A4692B20B92D24A431E1288C2
:102D80000D935B46D94657468B461500B0460994CD
:102D9000CD4C0F934B46002B00DA81E15B46013BA3
:102DA0009AB21BB29B46099B059202331AB24B445E
:102DB00009929BB2BAB2571CBEB29246720001325F
:102DC0009B181BB29946079B3FB29B1998B21BB246
:102DD000AB4248DA0A9A0599531A9AB20C92BB4A46
:102DE0001BB2128893423EDA4D000B998C46AC44DC
:102DF00061468DB209B28C4663440E919A4207DA5D
:102E0000059D0A9BAC46D21A624413B295B20E934A
:102E10000C9902004B1EEB189BB2FFF713FBD0235B
:102E200080221B0652025A618022D2029A610E9BB6
:102E3000002B11D04346B0461E003000FDF766FC63
:102E40002378002BFCD1013D0133ADB22370002D5E
:102E5000F3D1330046469846D02380221B06D20287
:102E60005A61984B1D88079A059B9446634498B213
:102E70001BB2AB4247DA0A9B9B1B9AB20592934A5C
:102E80001BB2128893423EDA69460C254D5FAC4670
:102E900063440C95039D9A4206DA0A9B0132D31AC9
:102EA00053449DB21BB20C930D9B02009B1BEB186D
:102EB0009BB20599FFF7C6FAD02380221B06520267
:102EC0005A618022D2029A610C9B002B14D00123FC
:102ED0009A464346B8461F007B4E3800FDF716FC65
:102EE0003378002BFCD15346013DADB23370002D39
:102EF000F3D13B0047469846D02380221B06D202DE
:102F00005A61704B1D88039B02339BB20393BB45F0
:102F100000DD3FE70F9B2A009B466B469B8E0125F9
:102F20009A465B461100684C002B00DAB4E0029B25
:102F3000013B9EB21BB20293089B02331AB25B4460
:102F400008929BB26A0001329B181BB29B46069BFB
:102F50005B1B98B21BB28B4247DA0A9B9B1B9AB24F
:102F600094465A4A1BB2128893423EDA0B9F710074
:102F7000B94649448FB209B289464B4403919A42FB
:102F800005DA0A9BD21AB21813B297B203936346BA
:102F9000013BFB1802009BB26146FFF753FAD023B6
:102FA00080221B0652025A618022D2029A610123BA
:102FB0009946039B002B11D04346A8461D002800CC
:102FC000FDF7A4FB2378002BFCD14B46013FBFB299
:102FD0002370002FF3D12B0045469846D023802242
:102FE0001B06D2025A61374B1988069B9E1BB0B252
:102FF00036B28E4259DA53461AB2344B1B889A4283
:1030000053DA049F3EB2B218934204DA0A9A9B1A2A
:10301000EB189FB21EB201235B4253449946FB1842
:1030200002009BB25146FFF70DFAD02380221B0607
:1030300052025A618022D2029A61002E14D00123DA
:103040009A464346A8461D001F4E2800FDF75EFB2A
:103050003378002BFCD15346013FBFB23370002FB1
:10306000F3D12B0045469846D02380221B06D2027E
:103070005A614B469BB29A46049B029A02339BB21A
:1030800004932BB29A4215DD0E4B013519885B462D
:10309000ADB2002B00DB4AE76A469BB2168951E7C6
:1030A0005A4692B29BB2059284E601235B42534496
:1030B0009946DEE711B0F0BCBB46B246A946A04631
:1030C000F0BDC0460607002098010020040700203C
:1030D000F0B54546DE4657464E46E0B58DB0049302
:1030E00016AB1B88059317AB1B7898464C4B1B8877
:1030F000984267DA4B4B1B88994263DA43465B0080
:1031000043445B001B18002B5CDD4346DB005B186F
:10311000002B57DD43469BB29A4693009A18424BC8
:1031200080B2D3180A93002308938BB20B93083311
:103130009BB2099007900393089B052B00D16CE08C
:103140000A9B1E786B461C229B5E0B9D9B466B4622
:1031500024229B5E2C0006930123994643461FB20E
:1031600012E04346012B34D0049B29B200933A006D
:103170003B005846FFF70CFA0134039B5544A4B2B8
:103180007608ADB2A3420CD04B463342E9D1059B41
:10319000049A9342F0D04346012B2CD0059B29B2D0
:1031A000E4E7089B0133DAB2099B089201339BB232
:1031B0000993079B53449BB207930A9B01330A93DD
:1031C000062AB9D10DB0F0BCBB46B246A946A0460E
:1031D000F0BD06980028CFDB114B1B889842CBDA54
:1031E00021B20029C8DB0F4B1B889942C4DA049A2C
:1031F000FDF7B4FAC0E706980028BDDB084B1B8832
:103200009842B9DA21B20029B6DB064B1B889942F5
:10321000B2DA059AFDF7A2FAAEE7002692E7C046B9
:10322000060700200407002058870010F0B5CE469E
:10323000474680B50278040083B0002A23D02A4B89
:103240002A4E99462A4D0EE00D2A09D0092A1FD18F
:10325000274A28491388098804338B4200DA1380EF
:103260002278002A0FD001340A2AEDD1224B1F4ABE
:103270001B881188DB005B18138000221C4B1A800E
:103280002278002AEFD103B0C0BCB946B046F0BDE9
:103290004B460020315E0027E85F174F1B88B84679
:1032A0003F780197154F3F880097FFF711FF43467E
:1032B0001A8829885300D3185B005B1810499BB209
:1032C00009882B800029CBD00A4908889100511A1F
:1032D000490041188B42C3DD3388D200D218002345
:1032E00032802B80BCE7C046120700200A0700206E
:1032F0000807002006070020140700201007002000
:1033000016070020024B1880024B19807047C046F8
:10331000080700200A070020031C002800D1012311
:10332000014ADBB21380704714070020024B18805B
:10333000024B18807047C04610070020120700207B
:10334000F0B5CE4647460A251F2680B593B005F056
:1033500019F8FDF73DF9FDF7D9FE0320FFF790F9C5
:103360000020FE4CFFF778F93C210020FFF7CAFF50
:103370002D2350223C21002001960095FFF7B6FC3A
:103380002D2350223C21002001940095FFF70CFAD8
:103390000220FFF7C1FF2000FFF7C8FF52212820BD
:1033A000FFF7B0FFEE4F0722390002A803F008FD37
:1033B00002A8FFF73BFF3C215020FFF7A3FF2D237E
:1033C00050223C21502001960095FFF78FFC2D23C1
:1033D00050223C21502001940095FFF7E5F902208E
:1033E000FFF79AFF2000FFF7A1FF52217820FFF797
:1033F00089FF0822390002A803F0E2FC02A8FFF7C7
:1034000015FF3C21A020FFF77DFF2D2350223C21FA
:10341000A02001960095FFF769FC2D2350223C2146
:10342000A02001940095FFF7BFF90220FFF774FF79
:103430002000FFF77BFF5221C820FFF763FF09221E
:10344000390002A803F0BCFC02A8FFF7EFFE3C2104
:10345000F020FFF757FF2D2350223C21F02001964A
:103460000095FFF743FC50222D233C21F0200194CE
:103470000095FFF799F90220FFF74EFF2000FFF7B4
:1034800055FF8C235B00180052219946FFF73AFF45
:10349000B44B2B22984619000AA803F091FC0AA805
:1034A000FFF7C4FE69210020FFF72CFF2D235022D7
:1034B0006921002001960095FFF718FC2D2350226A
:1034C0006921002001940095FFF76EF90220FFF7B3
:1034D00023FF2000FFF72AFF7F212820FFF712FF9C
:1034E0000422390002A803F06BFC02A8FFF79EFE3D
:1034F00069215020FFF706FF2D235022692150201B
:1035000001960095FFF7F2FB2D23502269215020F0
:1035100001940095FFF748F90220FFF7FDFE200017
:10352000FFF704FF7F217820FFF7ECFE052239002A
:1035300002A803F045FC02A8FFF778FE6921A0204D
:10354000FFF7E0FE2D2350226921A020019600956F
:10355000FFF7CCFB2D2350226921A0200194009578
:10356000FFF722F90220FFF7D7FE2000FFF7DEFE6B
:103570007F21C820FFF7C6FE0622390002A803F00B
:103580001FFC02A8FFF752FE6921F020FFF7BAFEE8
:103590002D2350226921F02001960095FFF7A6FB0C
:1035A0002D2350226921F02001940095FFF7FCF8AB
:1035B0000220FFF7B1FE2000FFF7B8FE48467F214A
:1035C000FFF7A0FE2D22414602A803F0F9FB02A856
:1035D000FFF72CFE96210020FFF794FE2D235022AA
:1035E0009621002001960095FFF780FB2D235022A5
:1035F0009621002001940095FFF7D6F80220FFF7EE
:103600008BFE2000FFF792FEAC212820FFF77AFE08
:103610000122390002A803F0D3FB02A8FFF706FE3F
:1036200096215020FFF76EFE2D2350229621502028
:1036300001960095FFF75AFB2D235022962150202A
:1036400001940095FFF7B0F80220FFF765FE200017
:10365000FFF76CFEAC217820FFF754FE0222390000
:1036600002A803F0ADFB02A8FFF7E0FD9621A02021
:10367000FFF748FE2D2350229621A02001960095A9
:10368000FFF734FB2D2350229621A02001940095B2
:10369000FFF78AF80220FFF73FFE2000FFF746FE03
:1036A000AC21C820FFF72EFE0322390002A803F048
:1036B00087FB02A8FFF7BAFD9621F020FFF722FE54
:1036C0002D2350229621F02001960095FFF70EFB46
:1036D0002D2350229621A02001940095FFF764F835
:1036E0000220FFF719FE2000FFF720FEAC2148461C
:1036F000FFF708FE6A46782302A81381FFF796FDBC
:10370000C3210020FFF7FEFD2D235022C3210020FE
:1037100001960095FFF7EAFA2D235022C3210020DD
:1037200001940095FFF740F80220FFF7F5FD200017
:10373000FFF7FCFDD9212820FFF7E4FD0022390026
:1037400002A803F03DFB02A8FFF770FDC321002093
:10375000FFF7D8FD2D235022C32105E0FFFF000015
:10376000688C00106C8C0010502001960095FFF7BB
:10377000BDFA2D235022C321502001940095FFF75C
:1037800013F80220FFF7C8FD2000FFF7CFFDD92175
:103790007820FFF7B7FD6A46432302A81381FFF79D
:1037A00045FDC3210020FFF7ADFD2D235022C3218D
:1037B000A02001960095FFF799FA2D235022C321EE
:1037C000A02001940095FEF7EFFF0220FFF7A4FD73
:1037D0002000FFF7ABFDD921C820FFF793FD3D2264
:1037E000414602A803F0ECFA02A8FFF71FFDC3212F
:1037F0000020FFF787FD2D235022C321F0200196E2
:103800000095FFF773FA2D235022C321F020019475
:103810000095FEF7C9FF0220FFF77EFD2000FFF7AD
:1038200085FD4846D921FFF76DFD2F22414602A8AC
:1038300003F0C6FA02A8FFF7F9FC13B0C0BCB94602
:10384000B046F0BDF0B5C64600B5D34D2C78022C7D
:1038500000D194E017D8002C40D0D04804F0F8FBF9
:10386000CF4ED04C3100200000F052FACE4F3870CD
:10387000002800D0A8E00123CC482B7004F08AFC7B
:1038800080BCB846F0BD032CFAD1C94804F0E0FB77
:10389000C34EC44C3100200000F03AFA002800D09A
:1038A000EDE02B78032B00D04FE1C24804F072FC0E
:1038B000C14CC248216804F06DFC23680A2B00D17A
:1038C000A2E10B2B00D1E7E10C2B00D1FAE10D2B8B
:1038D00000D1C8E1BA4804F05DFCD1E7B94804F072
:1038E000B7FBAF4EAF4C3100200000F011FA0028BA
:1038F00000D0B6E028700020FFF718FD1821142032
:10390000FFF700FD0220FFF707FDAF4C2000FFF797
:103910008DFC18211420FFF7F5FC0220FFF7FCFCBA
:10392000AA4E3000FFF782FC18211420FFF7EAFCB2
:103930000220FFF7F1FCA64D2800FFF777FC3000CE
:1039400000F004FB280000F001FB200000F0FEFA6C
:10395000A048FFF7EBFC18211420FFF7D3FC02204E
:10396000FFF7DAFC9C4C00229C49200003F028FA67
:103970002000FFF75BFC9A4804F00CFC80E79948B4
:1039800004F066FB864F874E3900300000F0C0F926
:10399000854B98461870002804D12C70834804F099
:1039A000F9FB6DE73988308800F0FAF98E4B186022
:1039B00003000A3B042B00D8C4E00F2800D1D0E05C
:1039C00043462C701B7878E03188208800F0E8F9B5
:1039D000854B0100186003000A3B032B00D8C9E0A7
:1039E0000E2800D1AEE00F2800D1BAE001232B70E1
:1039F0003B78002BD2D07C4C2368092B00D93FE7C1
:103A00000020FFF793FC18211420FFF77BFC022015
:103A1000FFF782FC7048FFF709FC744804F0BAFB1A
:103A20002368734D6B482B60FFF780FC182114202E
:103A3000FFF768FC0220FFF76FFC6E4C23689A00CA
:103A4000D2182B685200D218604D226063492800BA
:103A500003F0B6F92800FFF7E9FB2268664B1A600D
:103A60000EE70123318820882B7000F099F95E4B16
:103A700001001860614804F08DFB2B7812E7318853
:103A8000208800F08DF9584C010020605C4804F05B
:103A900081FB23680F2B64D01A000A3A032A51D8FD
:103AA00002222A70544A1168524A11600021554A74
:103AB0001160414A13603C4B1B78002B00D16DE72D
:103AC000494C2368092B00D9DAE60020FFF72EFCC9
:103AD00018211420FFF716FC0220FFF71DFC3A4EB8
:103AE0003000FFF7A3FB18211420FFF70BFC374829
:103AF000FFF79CFB18211420FFF704FC344D28002D
:103B0000FFF794FB18211420FFF7FCFB3000FFF7B0
:103B10008DFB364804F03EFB2368354E2D4833605C
:103B2000FFF704FC18211420FFF7ECFB0220FFF73D
:103B3000F3FB344C23689A00D21833685200D21831
:103B4000226083E703232B70AFE6032B00D997E6AF
:103B5000012B1DD0022B00D1B1E0002B00D08FE64D
:103B6000C9E60023244A2B701360224A1360254AB9
:103B70001360C0E60223104E184C306020002B70FA
:103B800004F008FB2000316804F004FB2B7889E680
:103B9000054B1B782DE7C04618070020908C0010BD
:103BA0000E0700200C0700201B070020D88C0010F7
:103BB000A88C0010F48C0010AC060020088D0010BA
:103BC000208D0010708C0010C40600205C060020C0
:103BD0007C060020FFFF000034060020688C0010E7
:103BE000D08C0010988C001054060020EC8C001033
:103BF000A40600209C060020C00600207C8C00103B
:103C0000C08C0010A0060020384804F0C3FA002041
:103C1000FFF78CFB18211420FFF774FB0220FFF73D
:103C20007BFB3348FFF702FB324B334D1968334BB4
:103C3000334C1B682800C918216004F0ABFA290036
:103C40002268304C200003F0BBF82F48FFF76EFBD2
:103C500018211420FFF756FB0220FFF75DFB200020
:103C6000FFF7E4FA0CE60020FFF760FB18211420B0
:103C7000FFF748FB0220FFF74FFB1D48FFF7D6FA7E
:103C80001E4B19681B4B186803F016F902001C4BF9
:103C90001C4C19491A60D5E70020FFF747FB182193
:103CA0001420FFF72FFB0220FFF736FB1048FFF729
:103CB000BDFA104B1A68114B1B68D21AE7E7134B79
:103CC0001B78FAE60020FFF731FB18211420FFF7DC
:103CD00019FB0220FFF720FB0548FFF7A7FA054B69
:103CE000064A1B6812685A43D1E7C046108D00107F
:103CF0007C0600209C060020688C0010A006002096
:103D0000C0060020C4060020FFFF00001B070020A3
:103D100070B582B0050068460C00FCF7F3FA6B46FC
:103D20000020185E134B14499C4660440301181A86
:103D3000000103F0C1F86B4606000220185E0F4B2D
:103D40000F499C46604483001818800103F0B4F8C2
:103D50006A46FA23288026800421525E00209B00B8
:103D60009A4201DB02B070BD064804F071F90120EF
:103D7000F8E7C046EAFCFFFFB80B0000F0F1FFFFD8
:103D8000ACF4FFFF288D001010B5FFF7D9FA04F04E
:103D90000DFAFFF757FDFA20400000F03FFEF8E76C
:103DA00070B5441EA4B203004E2C35D80A003D3A2B
:103DB00007202B2A2FD91A001D00513AA13D92B29B
:103DC000ADB2F13B9BB24E2B04D83C2902D96829F5
:103DD00000D8AEE04E2C4CD8692900D86DE095296A
:103DE00000D8ACE04E2A07D896290AD800204E2DDC
:103DF00011D94E2B58D932E04E2D00D99BE096298F
:103E000044D9C22900D88BE04E2A00D98AE0C329C0
:103E100000D881E0002070BD0200513A92B24E2AD3
:103E20000AD90500A13DADB24E2DCAD83C291ED9F4
:103E3000682908D80920EEE73C2901D968295FD90B
:103E40001D00A13DADB2F13B9BB24E2A11D86929AC
:103E500035D9952975D9962954D9C22973D94E2CAB
:103E600054D9C32958D9EF29D4D80F20D3E7F13B2F
:103E70009BB24E2D26D80E006A3E06202B2ECAD9A4
:103E80004E2C25D89629BCD84E2AAFD900204E2DCD
:103E9000C1D94E2B04D80E00973E0C202B2EBAD938
:103EA0004E2C33D94E2BB5D82B20C43989B2884239
:103EB00080410C2398430D30ADE74E2AD9D800201D
:103EC0004E2DA8D94E2B14D94E2CDBD94E2AC2D94F
:103ED0004E2DDED80B00973B03202B2B9BD9C329FB
:103EE00098D90023EF228A425B410E205B421840A2
:103EF00091E70E006A3E0B202B2E00D88BE7E3E7FC
:103F0000082088E700204E2DA9D884E7C32900D9CE
:103F100080E74E2A00D97DE74E2DC3D800207AE7EE
:103F2000012078E74E2D00D874E74E2BB3D900203E
:103F300071E70A206FE74E2B00D860E7A2E7042064
:103F400069E7052067E7022065E7C0460378002B94
:103F500005D02022027043780130002BFAD170473F
:103F6000094A830094464022634410B51C68C0008F
:103F70006240C02414408022520113431C60034B52
:103F80009C466044416010BD04C0014000400140B7
:103F90000A4B80009C4604236044002901D00C2376
:103FA0000821002A00D10B00026853400C221A405D
:103FB00080235B01184302607047C04604C0014083
:103FC000074BC0009C466044036809025940C02367
:103FD0009B00194080235B01184301607047C04675
:103FE00004400140084B80009C466044002905D0F5
:103FF00080239B011843402303607047C0239B012B
:10400000184340230360F8E704C001400123D02295
:104010008340120693629361094A830094464022CA
:1040200063441968C0004A40C021114080225201F7
:1040300013431960034B9C4605236044436070475B
:1040400004C0014000400140024B18688007C00FC7
:104050007047C04600C00640EFF3108072B6034AB6
:104060001368002BFCD0BFF35F8F70472C0100D08A
:10407000BFF35F8F0022024B1A6080F310887047F5
:104080002C0100D070B5EFF3108C72B60D4D2B687B
:10409000002BFCD0BFF35F8F0724CB08C618C05C91
:1040A00001230C40A3401C000440034207D10343FA
:1040B0003370BFF35F8F2C608CF3108870BD1000DD
:1040C00001F0A2FB2C0100D00021044B044ABFF3F5
:1040D0005F8F02C39342FAD17047C046000100D0FF
:1040E000800100D0044A1078431CDBB2172B00D9A2
:1040F000102313707047C046A8010020012383409D
:10410000002904D0034A1360034A13607047034A2E
:104110001360FBE780E200E000E100E080E100E006
:10412000024B10309B688000C058704700ED00E0E3
:1041300070B50D00EFF3108672B60F4A1368002BAE
:10414000FCD0BFF35F8F0D4B10309B6884001B5970
:104150000B4A934203D09D4201D001F06DFB074B07
:104160009B681D51BFF35F8FBFF35F8F0022024B2F
:104170001A6086F3108870BD240100D000ED00E0C5
:10418000CD010010F0B5DE4657464E464546E0B537
:104190000C0083B0EFF3108972B6584A1368002BF5
:1041A000FCD0BFF35F8F564B9A68030010339F001B
:1041B000D559544A9046954232D0A54243D0524EEA
:1041C000AA1B2F2A2CD801228240924651464F4AE0
:1041D00012681140019151464D4A1160BFF35F8F43
:1041E000EFF305829346002A33D101232A009A4334
:1041F00093689C4208D177E04B005B189B00F31852
:104200009968A1422AD01A00062151560029F3DAF2
:10421000019B002B19D052463E4B1A603B4B1A6053
:10422000374B9B68DD51BFF35F8FBFF35F8F002279
:10423000324B1A6089F3108803B0F0BCBB46B2461B
:10424000A946A046F0BD1500EAE75246304B1A6079
:10425000E6E79342C9D001F0EFFAC6E706215956C6
:10426000002921DB4A005018800034188046A068DD
:104270009860E079D871062020569871002824DBD8
:10428000A488F01A6405241544440019E0240005AC
:10429000400D24022043988052181F4B9200B618FC
:1042A0001A781970B271B3E7594600290FD1FF315E
:1042B00091711A49918018490A789A71184A9B1B82
:1042C0005B415A43120D0A70A2E71648E3E7164A0B
:1042D0001649D21A083A5002400D014399801449F8
:1042E00052080A43DA8093E7062151561300002949
:1042F000B8DA5A46002AEAD14546DCE7240100D064
:1043000000ED00E0CD010010AC01002000E100E074
:1043100080E100E080E200E01A07002001BDFFFF1D
:10432000AAAA000001BD0000E601002000F0FFFF86
:1043300000F8FFFF70B5EFF3058101240443EFF3AC
:10434000108C72B6214A1368002BFCD0BFF35F8F2C
:104350001F4B05001F4AED1A6D416A43120D1E4D99
:104360008900AE6852B27658A6421CD00621595632
:1043700091421CD012215956914222D01E215956E9
:10438000914220D02A2159560324914210D0134B38
:1043900019781A708171BFF35F8F00220B4B1A607E
:1043A0008CF3108870BDAB680D4C5C50EFE70024B7
:1043B0006100091989005B18FF21997109499980E9
:1043C000E5E70124F4E70224F2E7C046240100D027
:1043D000AC010020AAAA000000ED00E01A070020AE
:1043E000CD01001001BDFFFF054B064A1360064AD0
:1043F000136053609360D36013615361936170479E
:104400008080808000E400E004E400E0024B9C46F1
:1044100061448900016070474000003410B5040019
:10442000FFF760FE01002000FFF7F0FFFF2323717C
:10443000BFF35F8F10BDC04610B50400FFF752FEFA
:1044400001002000FFF7E2FFFF23A380BFF35F8F8F
:1044500010BDC04683680B4810B584466144624471
:10446000090112019A18591854684B6801209C429E
:1044700001D802D00020C0B210BD12680B689A4269
:10448000F9D8F7E7FFFFFF0F0A4B1968EFF3108029
:1044900072B60A68002AFCD0BFF35F8F1B68BFF3B7
:1044A0005F8F00221A6080F3108840BF0020002137
:1044B0007047C046E8060020F8B557464E464546C8
:1044C000DE46E0B599460CAB1C780DAB1B780600B8
:1044D00090469A460768002C11D1BC7B002C42D034
:1044E00065003B682D19033D59194B78BB73002BB0
:1044F00000D1FB7300238B704B700B7004E06500E0
:104500003B682D19033D5919B2682A4B944642461F
:10451000E3181B0163441A604A465A600A9A9A607B
:104520000B9ADA6000238B704B700B707B7B9B4681
:10453000002B2BD022005946B8687B6898473A6810
:10454000002816D05B4658465B005B445519033B78
:10455000A870D118D35C002B00D06B705B460C7038
:104560007B73A34513D0F0BCBB46B246A946A04618
:10457000F8BD5B465B005B44033BD3189C7051194C
:10458000525D002A00D05A705B460B707C73424625
:104590004B46307D00F0BAFB051E06D05346002B7B
:1045A00003D12100306800F0D5FD0E9B002BDAD03E
:1045B0001D70D8E7FFFFFF0FF0B5DE4657464E46A9
:1045C00045460023E0B58BB00893674B8200D45872
:1045D00000239B46099000F00FFB626806000F0065
:1045E000EFF3108572B61368002BFCD0BFF35F8F1A
:1045F00023689C465B7B9946002B00D169E0A2684A
:104600005A4B90464B441B01984443461A685B68DA
:1046100010001900801BB941002900DC63E00998F3
:1046200000F074FB002300229846002306920793B3
:1046300000239A466368BFF35F8F5A461A6085F37A
:1046400010885346002B08D10028C4D10BB0F0BC11
:10465000BB46B246A946A046F0BD089B414618029B
:104660004B461843D047626806000F00EFF31085F1
:1046700072B61368002BFCD0BFF35F8F002F50DBA6
:1046800033003B4302D02369002B61D12368D97BDF
:10469000002907D04A00521819688C4649466244DE
:1046A000033A51709A7B002A01D14A469A734A46CE
:1046B000DA734B46E168013BCA5C0132CA545B467F
:1046C00023616368BFF35F8F5A461A6085F31088D1
:1046D00081E70023002298460023069207930023D7
:1046E00000209A46A6E7002902D1002800D096E7CC
:1046F0000021604600F0ACFC43461A685B680692F5
:10470000079343469B689A464346DB689846E368AE
:104710004B44013B1B7808931B0203432361002099
:1047200088E72369002BB1D0069A079B921BBB41F7
:10473000002B15DB59460491012103914946029152
:1047400041460191514620000091FFF7B5FEB6E7C2
:1047500000F052FA32003B0012184B41002BE9DA0C
:104760000122034B5242E5E7B0060020FFFFFF0F96
:10477000FFFFFF7F10B5144C6368002B04D00A21A3
:104780001248FFF743FE10BD2300114A1021206894
:1047900000F078FB032000F023FA032000F020FB58
:1047A00003200C4900F06CFAFFF79CFC0A4B9C4676
:1047B00003232375D0231B061B6860446375074BD6
:1047C00080006060DC60DAE7F4010020E806002089
:1047D00055440010B945001040000034B0060020D8
:1047E000F0B54E464546DE465746E0B585B00193E6
:1047F00010AB1B780600039300239946984600925D
:104800007268EFF3108B72B61368002BFCD0BFF305
:104810005F8F3568AC7B002C3DD067002B683F195B
:10482000033FDB195A78AA73002A00D1EA73B168F2
:10483000474A8C4600980199A21812016244106000
:1048400051600E9991600F99D16042469A705A70EA
:104850001A706B7B9A46002B67D022001900A8685B
:104860006B6898472A68002852D0534650465B0030
:104870005344D719033BB870D118D35C002B00D038
:104880007B7053460C706B7354454FD0F3681B1903
:10489000013B187800E000207368BFF35F8F424649
:1048A0001A608BF31088002C4FD04B46002B08D198
:1048B0000002204305B0F0BCBB46B246A946A04664
:1048C000F0BD039B002B3ED00E9B00200F99984714
:1048D000030004000D000B4335D000290ADA009ACA
:1048E000019B121BAB4100920193002B0ADB039B3F
:1048F000994685E700F080F924184D410094019510
:10490000002DF4DA0123134C5B4200930194EEE78F
:1049100053465B005344033BD3189C70D119D25DBE
:10492000002A00D05A7053460B706C73307D009A89
:10493000019B00F0EBF981460028A7D021003068E8
:1049400000F008FCA2E70020B4E701204042B1E7F4
:10495000FFFFFF0FFFFFFF7FF0B504000D000626ED
:104960007642F717C64636196F4100B584B08F42BC
:1049700014D811D000F040F932003B00121A8B41DC
:10498000002B15DC002B3ED02000290000F068F938
:1049900004B080BCB846F0BD8642EBD900260027A3
:1049A00000F02AF932003B00121A8B41002BE9DD9E
:1049B000002302930193154B3200009314483B00EF
:1049C000FFF70EFF0028DFDB00239846BC46114AA4
:1049D000114F7B6A9C4504D8B96A8E42D4D99C4554
:1049E000D2D11168EFF3108072B60B68002BFCD0A7
:1049F000BFF35F8F1368BFF35F8F4146196080F389
:104A0000108820BFE5E7002ABED0D1E78944001016
:104A1000F4010020E80600200040054070B50600C3
:104A200000F0EAF8FA2204000D0000233000002113
:104A3000920003F087F800196941002902DBFFF7B3
:104A40008BFF70BD012001494042F8E7FFFFFF7F67
:104A5000F0B5EFF30583CE46474680B505000C0060
:104A600085B0002B12D02C4A0020536A9C4203D8F8
:104A7000926A0130AA4204D305B0C0BCB946B04620
:104A8000F0BDE01A421E9041C0B2F5E7234E0293FA
:104A90000193234B0200009330000B00FFF7A0FEB0
:104AA000031EE0DD20BF7168EFF3108772B60A685D
:104AB000002AFCD0BFF35F8FDAB294463068427BA5
:104AC00062451DD0FF221A40510089460168914479
:104AD00088464946414403398978002913D0F16852
:104AE0001B0A88464244013A1278DBB29A420FD040
:104AF0007368BFF35F8F00221A6087F31088B2E7F4
:104B0000FF221A40EBE732699342F1D13161EFE7BE
:104B1000614600F01FFBEBE700400540F401002078
:104B200089440010F0B5EFF30582D6464F4646465D
:104B30001000C0B51038EFF3108872B6214C23680E
:104B4000002BFCD0BFF35F8F0123190081401E4D65
:104B50001F006963AA461D4D29601D4D2E78AC4685
:104B60003500C5402F402B4209D1BFF35F8F27602E
:104B700088F31088E0BCBA46B146A846F0BD53465B
:104B8000144D5F6A83005D59AF420ED3124A8E43C3
:104B90009B5862461670BFF35F8F0022226088F335
:104BA0001088002BE6D09847E4E70C4B92009C4617
:104BB000624413681360BFF35F8F0023236088F3A0
:104BC0001088D7E7280100D0004005403C70054020
:104BD0001C070020EC060020AC050020D03F05405B
:104BE00010B50100024A0348FFF74CFA10BDC04659
:104BF000348D001019070020034B596A0A00986A87
:104C0000596A8A42FAD170470040054070B50400E5
:104C10000D00124A536A1900966A536A8B42FAD100
:104C20003000190024184D41AB4211D80ED02B0092
:104C30000A494A6A9A42FCD307D1084A02E0516AFB
:104C4000994202D1916AA142F9D370BDA642EED930
:104C5000012301246442E5175B42E9E70040054077
:104C6000064A536A9942FCD807D1044B02E05A6ABB
:104C7000914202D19A6A8242F9D3704700400540BE
:104C800070B504000D00EFF3108672B61A4A13686F
:104C9000002BFCD0BFF35F8F002D1BD02000FFF74F
:104CA0003FFA164981420AD02000FFF741FA01215C
:104CB0002000FFF723FA0123A340114A1360114B90
:104CC000A400E550BFF35F8F00220B4B1A6086F300
:104CD000108870BD0B4BA200D5500122A2400A499A
:104CE00020000B7893430B700449FFF74BFA002127
:104CF0002000FFF703FAE5E7280100D0254B00105C
:104D000038600540AC0500201C070020F0B54F4678
:104D1000D6464646C0B507002C4C616A0D00A66A0F
:104D2000616AA942FAD18B4208D805D00120E0BCC3
:104D3000BA46B146A846F0BDB242F7D9EFF3108AA1
:104D400072B6234801680029FCD0BFF35F8F0125AC
:104D5000BD4020491D4C8846097889462943C9B27F
:104D60008C46414660460870391D1B4889006563C2
:104D70000A51B9000B50216A0020294219D0616AFA
:104D80000800A66A616A8142FAD18B4219D801D122
:104D9000B24216D8CC4516D00C4B1F201D625D6365
:104DA00001230740BB400D4A1E38136043464A4664
:104DB0001A70BFF35F8F0022054B1A608AF31088C8
:104DC000B5E70020F5E70120F3E7C04600400540C5
:104DD000280100D01C070020EC06002080E200E043
:104DE000EFF3108C72B60A490B68002BFCD0BFF3AE
:104DF0005F8F01238340074A0748136202789A4372
:104E00000270BFF35F8F00230B608CF31088704734
:104E1000280100D0004005401C07002070B50500A7
:104E200014001600002915D00C00002A12D080684A
:104E30006B689847296800280ED073009B196200A0
:104E4000033B1219CB18033A9C7088188A5C002A1D
:104E500015D10670200070BD63001B197200033B62
:104E60009219CB18033A9E7088188A5C002A02D1E6
:104E700004703400EEE75A7004703400EAE75A70A8
:104E80000670E7E730B583600023CCB2437301338B
:104E9000047342608373C4730D000068012C06D94B
:104EA000421C0133DBB2137003329C42F9D1FF2163
:104EB00029404B005918002340180338437030BD77
:104EC000F8B5CE46474606000C0080B5002907D04D
:104ED0004D0003686D18033D5A195778002F04D10F
:104EE0002000C0BCB946B046F8BD7900C9190339E5
:104EF0008846434459788946002159705170736837
:104F00003A002100806898473368002814D0424650
:104F10009A18947059195B5D002B00D053700F7074
:104F2000270049463000FFF7CBFF39000200300070
:104F3000FFF774FF0400D3E7424641465D19AF70A6
:104F40009A185B5C002B00D06B701470E9E7C046C8
:104F5000F0B557464546DE464E46E0B50D006B00BF
:104F600001685B19DF1E0400C85D83B00192CA1995
:104F7000002850D043001B18033BCB185E78B44682
:104F8000002E1AD1019E002E42D0E67B002E04D0C6
:104F900073009B19CB18033B5D70A37B002B00D1E2
:104FA000A573E57300282FD10023537003B0F0BC24
:104FB000BB46B246A946A046F0BD72006244033A21
:104FC00089184A78904600224A7091465A7001002A
:104FD00032002000FFF722FF43468246002B07D015
:104FE0005B0021684344033BCB185A78002A16D152
:104FF000424651462000FFF711FF2168019BCA1964
:10500000002BC2D10028CFD043001B18033BCB1884
:1050100000219970C8E7019B002BB6D1C4E750006E
:1050200080180338091848788346484648705870F5
:1050300041462000FFF7F2FE594680462000FFF768
:105040003FFF414602002000FFF7E8FE8046CFE721
:10505000F0B557464546DE464E46E0B583B0019171
:10506000457B04006B0000685B19DF1EC15DC2193F
:10507000002952D04B005B18033BC3185E78B4463E
:10508000002E1CD1019E002E44D0E67B002E04D0C1
:1050900073009B19C318033B5D70A37B002B00D1E9
:1050A000A573E573002931D1002328005370617383
:1050B00003B0F0BCBB46B246A946A046F0BD7200A4
:1050C0006244033A8018427890460022427091462A
:1050D0005A7020003200FFF7A1FE43468246002BA3
:1050E00007D05B0021684344033BCB185A78002A61
:1050F00017D1424651462000FFF790FE019B010068
:105100002068C219002BC0D10029CDD04B005B18FC
:10511000033BC31800209870C6E7019B002BB4D155
:10512000C2E750008018033809184878834648467B
:105130004870587041462000FFF770FE594680467F
:105140002000FFF7BDFE414602002000FFF766FE8B
:105150008046CEE770B5040000292CD0437B8B42FB
:105160002ED0056848004018033828188278002A95
:1051700021D053009B18033BEA5CEE188A4202D10F
:105180001BE0002A08D053009B18033BEB185A7809
:105190008A42F6D142785A7000230122837043700C
:1051A0002000FFF7D5FE617B02002000FFF736FEEE
:1051B0006073012000E0002070BD43783370EBE79E
:1051C00001221900FFF7C4FE60730120F4E7C04616
:1051D000F8B5CE464746040080B506200E0000F024
:1051E00023FA051E51D0524B5249E21853425A41FC
:1051F0008023DB039C4692054F4B62441A604F4B61
:105200001A6010008B689843FBD1494B8021E3184A
:105210005A4253414A4A5B0049009952062000F025
:1052200003FA3100C00001F06FFEC30932D1402201
:10523000012190466162A362256BEB0736D42700FB
:105240008026E36A00232C3776013E433360062034
:10525000256300F0E9F94146800001F055FE236B1B
:1052600005009846DB073BD46022E36A5A406E2370
:105270001340336043462363802310229B013B434A
:105280001A60304B23630323A3642800C0BCB946D3
:10529000B046F8BD2C4A93423FD900232B492C4AF3
:1052A0006162A362256B9046EB07C8D52200C0233C
:1052B00030329B011343234A06201A60666AA26AB1
:1052C000B601B61800F0B0F9224901F01DFEB60291
:1052D0000100300001F018FE0021FFF797FCAEE757
:1052E0002200C02330329B011343164A06201A6065
:1052F000636AA26A9B019946914400F095F94B4676
:1053000014499B02994601F0FFFD0100484601F057
:10531000FBFD0021FFF77AFCA6E77F229901884672
:1053200010400130400819008044030082E7C04665
:105330000080FCBF00C0004000E0004000F00040E2
:10534000FC06002001030000FEFF0000FFFF00003C
:10535000C0FF3F004E0E000030B50C2083B000F0BF
:10536000B9F9FEF771FE00280ED0994B994A1A60E0
:105370005A609A60DA601A615A619A61DA611A6257
:10538000954A5A6203B030BD944CA06700F0AAF968
:105390000122934B1A60636C012BFCD10322914BC9
:1053A0001A608E4A936B012BFCD1013301218E4A86
:1053B0008E480093043300F03DF905238C4A009396
:1053C00001218C4800F036F98B4B5A68FF2A02D82D
:1053D000802252005A6080227D4C824B216912014A
:1053E000854D1A60002907D0606901F08DFD431CCE
:1053F0005800C0180338FDD2E0217F4B02201A6804
:105400001140802252012A4311601968484003214B
:105410000140116004219A681142FCD08022802151
:1054200092012A4309011160802252005A60734B95
:105430002361734B5968FF2900D85A600321684AD9
:105440006F4B116002399A681142FCD0E0201A6853
:105450001040802252011A4310601868484003210E
:1054600001400220116066498A681042FCD0802207
:1054700092011343802212011A608022614B520074
:105480004A606361604B5968FF2900D85A608022E6
:105490005E4BE16912015C4D1A60002907D060691A
:1054A00001F032FD431C5800C0180338FDD2E02241
:1054B00055490B681A4080235B012B431A608023F7
:1054C00080229B012B4312011A608022414B520023
:1054D0004A60E3614E4B5968FF2900D85A60802228
:1054E0004C4B216A12014A4D1A60002907D06069AD
:1054F00001F00AFD431C5800C0180338FDD2E02219
:1055000043490B681A4080235B012B431A608023B8
:1055100080229B012B4312011A60802380225B00B2
:105520004B602C4BD20223623B4B5968914200D214
:105530005A608022394B616A1201374D1A60002986
:1055400007D0606901F0E0FC431C5800C018033824
:10555000FDD2E02230490B681A4080235B012B43C7
:105560001A60802380229B012B4312011A60802342
:10557000DB024B60184B6362294B5A68FF2A02D842
:10558000802252005A608022264BA1691201244DCC
:105590001A60002907D0606901F0B6FC431C58006E
:1055A000C0180338FDD2E0221D490B681A40802341
:1055B0005B012B431A60802380229B012B43120145
:1055C0001A6080235B004B600E4BA361DAE6C04695
:1055D000C4050020006CDC021BB700000080004006
:1055E0003CB0004030B00040002F685900800240BD
:1055F000008C864700C0024030800040001BB7008E
:105600003C800040405973075480004054B0004033
:105610006080004060B000406C8000406CB0004092
:105620004880004048B00040014B8000C05870479F
:10563000C4050020F8B5040021481D0017000E0025
:1056400001F062FC0100380001F05EFC069B2904B9
:105650001B0319432368002B20DB1A4B1A4DE21859
:1056600053425A4180235B019C461203174B62440C
:105670001A60174B1A601700AB689F43FBD1C0221A
:10568000231D92011A4321232660A0601360236822
:10569000002BFCDA0823E1601360F8BD3F23226889
:1056A0001340B342D9D1A3681B051B0D8342D4D14B
:1056B000EE22E368D20213408B42CED1EDE7C04622
:1056C000001BB7000040FDBF00C0004000E00040EC
:1056D00000F000408023024A9B000343D3627047DE
:1056E00000800540AA23064A1B0113602F230549A9
:1056F000D360054B19605368002BFCDA7047C04635
:105700000040024000B0FA00006002402C4B2D4ADD
:1057100070B51A602C4A2D4B2D491A6014008B6805
:105720009C43FBD12B4D2C4EB54208D2013E761B3B
:10573000B60808CD984723000134B342F9D1FFF7EA
:105740000BFE264A214B1A60214A9368DB43DB019A
:10575000DD09002BF9D14022214B224C224E9A67C1
:105760005A671A67DA66B44208D223682000002B11
:1057700020D00834FEF760FEB442F6D31B4E1C4C1A
:10578000C022A168300002F0FFFAA660FEF79CFC80
:10579000FEF72AFEFEF7EEFF164C174EB44208D273
:1057A000013E361BB60808CC98472B0001359E42B7
:1057B000F9D170BD0834FEF731FEB442D5D3DDE730
:1057C00000E00040BFCDFBFEFE7F3C0000F000404B
:1057D00000C000406002002070020020FFFFFF01B7
:1057E00000F001405802002060020020000000206C
:1057F00000ED00E0700200207802002000BEFDE70E
:1058000010B5FFF7FBFFC0460FB400B5084883B0E2
:1058100002F01EFC049B002B07D005A91800019183
:1058200001F0F2FA034802F013FC0120FFF7E6FF53
:10583000588D0010688D001010B50148FFF7E4FF87
:105840006C8D00109A4200D2885470477047C04651
:10585000F8B557464E464546DE46E0B599460A9BA2
:1058600007009A460D9B8846934615000B9E9B07A2
:1058700010D10C9B9E420DD29D1B14000E005D4466
:1058800022004B46013431002020B847A542F7D111
:10589000B0460B9E002E27D0444675195346AA1BCE
:1058A000013E985D21004B46B847002EF6D12300FB
:1058B0002C0098460D9B9B070FD55B46E51A0C9B69
:1058C000AB420AD94646984622004B46310020207A
:1058D0000135B8470134A845F6D82000F0BCBB46D6
:1058E000B246A946A046F8BD2C00E3E7F0B54F4606
:1058F0004646D646C0B584B098460EAB1B78129F7C
:10590000994694460D9C109B119EBA0725D4002EF3
:105910004BD19C4200D3BFE001223A4092461F2C5B
:1059200000D9B8E00C9A551E302201E0202C03D09B
:1059300001342A55A342F9D85246002A0DD0A64276
:105940000BD9202C44D00C9A551E302201E0202C7B
:105950003ED001342A55B442F9D1FA064DD57A0524
:105960003FD4002C39D10F9B102B00D179E00F9B35
:10597000022B00D18AE030230C9A012413704B468D
:10598000002B3FD02D230C9A135501340C9B6246FB
:1059900000930397434602960194FFF759FF04B022
:1059A000E0BCBA46B146A846F0BD012215003D4014
:1059B000AA463A422FD04A46002A02D10C323A4235
:1059C00000D0013E9C42BAD21F2CABD9202E27D941
:1059D0002024FA06DAD57A0503D4A3422DD0A642B4
:1059E0002BD00F9B102B32D0022B20D0202CCDD0CF
:1059F00030220C9B1B191A700134202CC6D04B4648
:105A0000002BBFD17B070DD43B07BFD520230C9AB9
:105A100013550134BAE79C429FD21F2C00D881E76E
:105A200020249AE72B230C9A13550134AEE7202C3F
:105A3000ACD00C9B1B1901343AE0631E012C92D0B0
:105A40000F9A102A2AD0022A2FD01C00D0E7BB06BA
:105A50000ED4202C9AD00C9B1A1901347823137081
:105A6000C4E7BB060DD478230C9A01241370BFE75A
:105A7000202C00D18AE758220C9B1B191A70013484
:105A8000B4E758230C9A01241370B1E70C9A6033E1
:105A900001241370ACE7202400265EE7023CBA061E
:105AA000E9D40C9A12191C00D8E70C9A9246534478
:105AB00062221A709AE7C04610B5002800D110BDC6
:105AC00002F07AFAFBE7C0460B0010B5002802D0BE
:105AD00049681B68984710BDF0B5DE4657464E46EC
